:020000040800F2
:10000000000001206D0B0008BD0B0008BD0B0008AF
:10001000BD0B0008BD0B0008BD0B00080000000070
:10002000000000000000000000000000BD0B000800
:10003000BD0B000800000000BD0B0008950A000879
:1000400000000000BD0B0008BD0B0008BD0B000840
:10005000BD0B0008BD0B0008690300088D030008F4
:10006000BD0B0008BD0B0008BD0B00080000000020
:100070000000000000000000000000000000000080
:100080000000000000000000BD0B000800000000A0
:10009000000000000000000000000000BD0B000890
:1000A000BD0B0008BD0B0008BD0B0008BD0B000810
:1000B000BD0B0008BD0B000800000000BD0B0008D0
:1000C000BD0B0008BD0B0008BD0B00084D0A000861
:1000D000BD0B000800000000000000000000000050
:1000E000BD0B0008BD0B0008BD0B000800000000A0
:1000F0000000000000000000000000000000000000
:1001000000000000BD0B000800000000BD0B00084F
:1001100000000000000000000000000000000000DF
:1001200000000000000000000000000000000000CF
:1001300000000000000000000000000000000000BF
:10014000000000000000000000000000BD0B0008DF
:10015000000000000000000000000000000000009F
:10016000BD0B0008BD0B00080000000000000000EF
:10017000000000000000000000000000000000007F
:1001800000000000BD0B000800000000000000009F
:04019000BD0B00089B
:1001940010B5054C237833B9044B13B10448AFF3BD
:1001A40000800123237010BD000000200000000027
:1001B400080C000808B5034B1BB103490348AFF30F
:1001C400008008BD0000000004000020080C0008A6
:1001D40080B483B000AF78605F4B1B687A68127894
:1001E400114601228A4011465B4A0B4313607B6827
:1001F4009B78002B0BD1584B9B687A681278114678
:1002040001228A401146544A0B43936029E07B68DB
:100214009B78012B0BD1504BDB687A68127811461E
:1002240001228A4011464C4A0B43D36019E07B6893
:100234009B78022B15D1484B9B687A68127811463B
:1002440001228A401146444A0B439360424BDB68C7
:100254007A681278114601228A4011463E4A0B43BD
:10026400D3607B681B780F2B66D801A252F823F069
:10027400B5020008B5020008B5020008B50200087E
:10028400D7020008D7020008D7020008D7020008E6
:10029400F9020008F9020008F9020008F90200084E
:1002A4001B0300081B0300081B0300081B030008B2
:1002B4002A4B9B687A68527811467A68127802F061
:1002C4000302920001FA02F21146244A0B4393609E
:1002D40033E0224BDB687A68527811467A681278E8
:1002E40002F00302920001FA02F211461B4A0B4388
:1002F400D36022E0194B1B697A68527811467A68F8
:10030400127802F00302920001FA02F21146134A33
:100314000B43136111E0114B5B697A685278114603
:100324007A68127802F00302920001FA02F211468E
:100334000A4A0B43536100E000BF7B681B781946EF
:100344007B685B68064A42F82130002318460C3764
:10035400BD465DF8047B7047003C01400038014015
:100364001C00002080B500AF054B5B69044A43F0D4
:1003740001035361034B1B68984700BF80BD00BF56
:10038400003C01401C00002080B500AF054B5B69B8
:10039400044A43F002035361034B5B68984700BF70
:1003A40080BD00BF003C01401C00002080B483B02D
:1003B40000AF786039603B685B78012B07D03B68FD
:1003C4005B78022B03D03B685B78032B54D17B68AA
:1003D4001B683A6812785200032101FA02F2D243F0
:1003E4001A407B681A603B685B78022B2AD0032B87
:1003F40002D0012B0DD0E8E17B68DB683A68127803
:100404005200032101FA02F2D2431A407B68DA60F7
:1004140031E07B68DB683A6812785200012101FA06
:1004240002F21A437B68DA607B68DB683A68127808
:1004340052000132012101FA02F2D2431A407B68D0
:10044400DA6018E07B68DB683A68127852000121B0
:1004540001FA02F2D2431A407B68DA607B68DB68F7
:100464003A68127852000132012101FA02F21A4369
:100474007B68DA60A9E1A8E13B685B78052B04D0CE
:100484003B685B78042B40F0AC807B681B683A685F
:1004940012785200012101FA02F21A437B681A60B1
:1004A4007B681B683A68127852000132012101FA14
:1004B40002F2D2431A407B681A603B685B78042BD3
:1004C40002D0052B0CD016E07B685B683A68127882
:1004D400114601228A40D2431A407B685A600AE0DE
:1004E4007B685B683A681278114601228A401A4395
:1004F4007B685A6000BF3B68DB78032B00F26481A1
:1005040001A252F823F000BF1D05000851050008A0
:1005140083050008B50500087B689B683A68127873
:100524005200012101FA02F2D2431A407B689A6018
:100534007B689B683A68127852000132012101FA03
:1005440002F2D2431A407B689A6049E07B689B6858
:100554003A6812785200012101FA02F21A437B68C8
:100564009A607B689B683A681278520001320121D4
:1005740001FA02F2D2431A407B689A6030E07B6849
:100584009B683A6812785200012101FA02F2D243C0
:100594001A407B689A607B689B683A6812785200BC
:1005A4000132012101FA02F21A437B689A6017E0D2
:1005B4007B689B683A6812785200012101FA02F2C2
:1005C4001A437B689A607B689B683A681278520089
:1005D4000132012101FA02F21A437B689A6000BFDA
:1005E400F2E03B685B78082B08D03B685B78072B0C
:1005F40004D03B685B78062B40F0E7807B681B687F
:100604003A6812785200012101FA02F2D2431A40E8
:100614007B681A607B681B683A6812785200013262
:10062400012101FA02F21A437B681A603B685B7885
:10063400062B0CD17B68DB683A68127852000321E0
:1006440001FA02F2D2431A407B68DA6025E03B6883
:100654005B78082B03D03B685B78072B1DD13B6884
:100664005B78072B02D0082B0CD016E07B685B6804
:100674003A681278114601228A40D2431A407B68B4
:100684005A600AE07B685B683A6812781146012276
:100694008A401A437B685A6000BF3B681B78002B72
:1006A40003D03B681B78072B0DD87B681B6A3A681C
:1006B400927811463A681278920001FA02F21A43CB
:1006C4007B681A620CE07B685B6A3A689278114630
:1006D4003A681278920001FA02F21A437B685A626D
:1006E4003B68DB78032B70D801A252F823F000BFDB
:1006F40005070008390700086B0700089D07000874
:100704007B689B683A6812785200012101FA02F270
:10071400D2431A407B689A607B689B683A68127877
:1007240052000132012101FA02F2D2431A407B68DD
:100734009A604AE07B689B683A681278520001210B
:1007440001FA02F21A437B689A607B689B683A68F4
:10075400127852000132012101FA02F2D2431A4006
:100764007B689A6031E07B689B683A681278520033
:10077400012101FA02F2D2431A407B689A607B6835
:100784009B683A68127852000132012101FA02F2A0
:100794001A437B689A6018E07B689B683A68127811
:1007A4005200012101FA02F21A437B689A607B68C5
:1007B4009B683A68127852000132012101FA02F270
:1007C4001A437B689A6000E000BF00BF0C37BD4647
:1007D4005DF8047B704700BF80B483B000AF7860DD
:1007E4000B46FB707B685B69FA78012101FA02F21F
:1007F4005A407B685A6100BF0C37BD465DF8047BE4
:100804007047000080B485B000AF0346FB71FB79EC
:100814005B09FB73FB7903F01F03BB730A4AFB7B81
:1008240052F82320BB7B012101FA03F31846064941
:10083400FB7B024341F82320002318461437BD46AE
:100844005DF8047B704700BF00E100E080B485B030
:1008540000AF78607B681B78FB73FB7B002B19D19E
:10086400534B1B68524A43F00103136000BF504BC3
:100874001B6803F00203002BF9D04D4B9B684C4AD4
:1008840023F0010393604A4B9B68494A23F0020317
:10089400936087E0FB7B012B2FD17B685B78BB7374
:1008A400BB7B002B06D1424B1B68414A23F48023B7
:1008B400136008E0BB7B012B05D13D4B1B683C4A10
:1008C40043F4802313603A4B1B68394A43F4803362
:1008D400136000BF364B1B6803F40033002BF9D0C0
:1008E400334B9B68324A43F001039360304B9B685F
:1008F4002F4A23F00203936054E0FB7B022B30D198
:100904002B4B5B687A6812791146294A0B43536072
:10091400274B5B687A68D28892011146244A0B43BC
:100924005360234B5B687A68527912041146204A5B
:100934000B4353601E4B5B687A68127A920511462A
:100944001B4A0B4353601A4B1B68194A43F08073CC
:10095400136000BF164B1B6803F00073002BF9D023
:1009640020E0FB7B032B1DD1114B5B687A68127965
:1009740011460F4A0B4353600D4B5B687A68127A39
:10098400920511460A4A0B435360094B1B68084AF7
:1009940043F08063136000BF054B1B6803F00063E2
:1009A400002BF9D000BF1437BD465DF8047B7047B7
:1009B4000038024080B483B000AF03460A46FB719E
:1009C4001346BB71BB79032B36D801A252F823F02E
:1009D400E5090008FB090008110A0008270A0008B5
:1009E400184B1B6BFA79012101FA02F21146154AE0
:1009F4000B43136320E0134B5B6BFA79012101FA7B
:100A040002F211460F4A0B43536315E00D4B1B6C66
:100A1400FA79012101FA02F211460A4A0B431364DE
:100A24000AE0084B5B6CFA79012101FA02F21146E3
:100A3400044A0B43536400BF00BF0C37BD465DF846
:100A4400047B70470038024080B582B000AF0E4B83
:100A54009B685B0803F00103DAB23B7962F300039D
:100A64003B71094B9B6803F00103DAB23B7962F3F3
:100A740041033B71054B1B685B693879984700BF9C
:100A84000837BD4680BD00BF003001405C00002037
:100A940080B500AF044B1B68002B02D0024B1B68CF
:100AA400984700BF80BD00BF5800002080B500AF4C
:100AB40000210248FFF790FE00BF80BD0000024005
:100AC40080B586B000AF00233B730023BB730023C3
:100AD400FB7307F10C031846FFF7B8FEBB7BFA7BE8
:100AE40011461846FFF766FF0123BB73BB7BFA7BF5
:100AF40011461846FFF75EFF0323FB730E23BB73F7
:100B0400BB7BFA7B11461846FFF754FF04237B7224
:100B140000233B720023FB7207F1080319460F48B8
:100B2400FFF744FC03237B7200233B7207F10803A5
:100B340019460B48FFF73AFC0123FB7001237B7035
:100B440000233B700223BB70064B7B603B46184678
:100B5400FFF73EFB0620FFF755FEFEE700000240CC
:100B640000040240B10A00080D488546AFF3008036
:100B74000C480D490D4A002302E0D458C4500433F4
:100B8400C4188C42F9D30A4A0A4C002301E01360CA
:100B94000432A242FBD300F011F8FFF791FFFEE705
:100BA400000001200000002000000020280C0008A4
:100BB4000000002060000020FEE7000070B50D4E2C
:100BC4000D4CA41BA4100025A54209D10B4E0C4CBE
:100BD40000F018F8A41BA4100025A54205D170BD8F
:100BE40056F8253098470135EEE756F825309847F2
:100BF4000135F2E7200C0008200C0008200C000846
:100C0400240C0008F8B500BFF8BC08BC9E46704729
:0C0C1400F8B500BFF8BC08BC9E46704755
:040C2000B90100080E
:040C2400950100082E
:0400000508000B6D77
:00000001FF
